{
  "_format": "hh-sol-artifact-1",
  "contractName": "Transactions",
  "sourceName": "contracts/Transactions.sol",
  "abi": [
    {
      "anonymous": false,
      "inputs": [
        {
          "components": [
            {
              "internalType": "address",
              "name": "sender",
              "type": "address"
            },
            {
              "internalType": "address",
              "name": "receiver",
              "type": "address"
            },
            {
              "internalType": "uint256",
              "name": "amount",
              "type": "uint256"
            },
            {
              "internalType": "string",
              "name": "message",
              "type": "string"
            },
            {
              "internalType": "uint256",
              "name": "timestamp",
              "type": "uint256"
            },
            {
              "internalType": "string",
              "name": "keyword",
              "type": "string"
            }
          ],
          "indexed": false,
          "internalType": "struct Transactions.TransferStruct",
          "name": "transaction",
          "type": "tuple"
        }
      ],
      "name": "Transfer",
      "type": "event"
    },
    {
      "inputs": [
        {
          "internalType": "address payable",
          "name": "receiver",
          "type": "address"
        },
        {
          "internalType": "uint256",
          "name": "amount",
          "type": "uint256"
        },
        {
          "internalType": "string",
          "name": "message",
          "type": "string"
        },
        {
          "internalType": "string",
          "name": "keyword",
          "type": "string"
        }
      ],
      "name": "addToBlockchain",
      "outputs": [],
      "stateMutability": "nonpayable",
      "type": "function"
    },
    {
      "inputs": [],
      "name": "getAllTransactions",
      "outputs": [
        {
          "components": [
            {
              "internalType": "address",
              "name": "sender",
              "type": "address"
            },
            {
              "internalType": "address",
              "name": "receiver",
              "type": "address"
            },
            {
              "internalType": "uint256",
              "name": "amount",
              "type": "uint256"
            },
            {
              "internalType": "string",
              "name": "message",
              "type": "string"
            },
            {
              "internalType": "uint256",
              "name": "timestamp",
              "type": "uint256"
            },
            {
              "internalType": "string",
              "name": "keyword",
              "type": "string"
            }
          ],
          "internalType": "struct Transactions.TransferStruct[]",
          "name": "",
          "type": "tuple[]"
        }
      ],
      "stateMutability": "view",
      "type": "function"
    },
    {
      "inputs": [],
      "name": "getTransactionCount",
      "outputs": [
        {
          "internalType": "uint256",
          "name": "",
          "type": "uint256"
        }
      ],
      "stateMutability": "view",
      "type": "function"
    }
  ],
  "bytecode": "0x608060405234801561001057600080fd5b50610bae806100206000396000f3fe608060405234801561001057600080fd5b50600436106100415760003560e01c806327506f53146100465780632e7700f014610064578063cc2d7ead14610082575b600080fd5b61004e61009e565b60405161005b919061087f565b60405180910390f35b61006c6102e1565b60405161007991906108c3565b60405180910390f35b61009c600480360381019061009791906105dd565b6102ea565b005b60606001805480602002602001604051908101604052809291908181526020016000905b828210156102d857838290600052602060002090600602016040518060c00160405290816000820160009054906101000a900473ffffffffffffffffffffffffffffffffffffffff1673ffffffffffffffffffffffffffffffffffffffff1673ffffffffffffffffffffffffffffffffffffffff1681526020016001820160009054906101000a900473ffffffffffffffffffffffffffffffffffffffff1673ffffffffffffffffffffffffffffffffffffffff1673ffffffffffffffffffffffffffffffffffffffff168152602001600282015481526020016003820180546101ab90610a7a565b80601f01602080910402602001604051908101604052809291908181526020018280546101d790610a7a565b80156102245780601f106101f957610100808354040283529160200191610224565b820191906000526020600020905b81548152906001019060200180831161020757829003601f168201915b505050505081526020016004820154815260200160058201805461024790610a7a565b80601f016020809104026020016040519081016040528092919081815260200182805461027390610a7a565b80156102c05780601f10610295576101008083540402835291602001916102c0565b820191906000526020600020905b8154815290600101906020018083116102a357829003601f168201915b505050505081525050815260200190600101906100c2565b50505050905090565b60008054905090565b60016000808282546102fc9190610994565b9250508190555060006040518060c001604052803373ffffffffffffffffffffffffffffffffffffffff1681526020018673ffffffffffffffffffffffffffffffffffffffff168152602001858152602001848152602001428152602001838152509050600181908060018154018082558091505060019003906000526020600020906006020160009091909190915060008201518160000160006101000a81548173ffffffffffffffffffffffffffffffffffffffff021916908373ffffffffffffffffffffffffffffffffffffffff16021790555060208201518160010160006101000a81548173ffffffffffffffffffffffffffffffffffffffff021916908373ffffffffffffffffffffffffffffffffffffffff1602179055506040820151816002015560608201518160030190805190602001906104409291906104a8565b506080820151816004015560a08201518160050190805190602001906104679291906104a8565b5050507fe505062928e35ace83e88abc8cef4e3dc88b0f5a884d2db981593f24da0eca618160405161049991906108a1565b60405180910390a15050505050565b8280546104b490610a7a565b90600052602060002090601f0160209004810192826104d6576000855561051d565b82601f106104ef57805160ff191683800117855561051d565b8280016001018555821561051d579182015b8281111561051c578251825591602001919060010190610501565b5b50905061052a919061052e565b5090565b5b8082111561054757600081600090555060010161052f565b5090565b600061055e6105598461090f565b6108de565b90508281526020810184848401111561057657600080fd5b610581848285610a38565b509392505050565b60008135905061059881610b4a565b92915050565b600082601f8301126105af57600080fd5b81356105bf84826020860161054b565b91505092915050565b6000813590506105d781610b61565b92915050565b600080600080608085870312156105f357600080fd5b600061060187828801610589565b9450506020610612878288016105c8565b935050604085013567ffffffffffffffff81111561062f57600080fd5b61063b8782880161059e565b925050606085013567ffffffffffffffff81111561065857600080fd5b6106648782880161059e565b91505092959194509250565b600061067c8383610741565b905092915050565b61068d816109ea565b82525050565b600061069e8261094f565b6106a88185610972565b9350836020820285016106ba8561093f565b8060005b858110156106f657848403895281516106d78582610670565b94506106e283610965565b925060208a019950506001810190506106be565b50829750879550505050505092915050565b60006107138261095a565b61071d8185610983565b935061072d818560208601610a47565b61073681610b39565b840191505092915050565b600060c0830160008301516107596000860182610684565b50602083015161076c6020860182610684565b50604083015161077f6040860182610861565b50606083015184820360608601526107978282610708565b91505060808301516107ac6080860182610861565b5060a083015184820360a08601526107c48282610708565b9150508091505092915050565b600060c0830160008301516107e96000860182610684565b5060208301516107fc6020860182610684565b50604083015161080f6040860182610861565b50606083015184820360608601526108278282610708565b915050608083015161083c6080860182610861565b5060a083015184820360a08601526108548282610708565b9150508091505092915050565b61086a81610a2e565b82525050565b61087981610a2e565b82525050565b600060208201905081810360008301526108998184610693565b905092915050565b600060208201905081810360008301526108bb81846107d1565b905092915050565b60006020820190506108d86000830184610870565b92915050565b6000604051905081810181811067ffffffffffffffff8211171561090557610904610b0a565b5b8060405250919050565b600067ffffffffffffffff82111561092a57610929610b0a565b5b601f19601f8301169050602081019050919050565b6000819050602082019050919050565b600081519050919050565b600081519050919050565b6000602082019050919050565b600082825260208201905092915050565b600082825260208201905092915050565b600061099f82610a2e565b91506109aa83610a2e565b9250827fffffffffffffffffffffffffffffffffffffffffffffffffffffffffffffffff038211156109df576109de610aac565b5b828201905092915050565b60006109f582610a0e565b9050919050565b6000610a0782610a0e565b9050919050565b600073ffffffffffffffffffffffffffffffffffffffff82169050919050565b6000819050919050565b82818337600083830152505050565b60005b83811015610a65578082015181840152602081019050610a4a565b83811115610a74576000848401525b50505050565b60006002820490506001821680610a9257607f821691505b60208210811415610aa657610aa5610adb565b5b50919050565b7f4e487b7100000000000000000000000000000000000000000000000000000000600052601160045260246000fd5b7f4e487b7100000000000000000000000000000000000000000000000000000000600052602260045260246000fd5b7f4e487b7100000000000000000000000000000000000000000000000000000000600052604160045260246000fd5b6000601f19601f8301169050919050565b610b53816109fc565b8114610b5e57600080fd5b50565b610b6a81610a2e565b8114610b7557600080fd5b5056fea26469706673582212204e41b902578315fcb8ce9d347c45f7cf3416521cdea58ce6d137db09aded43a764736f6c63430008000033",
  "linkReferences": {},
  "deployedLinkReferences": {}
}